:020000040800F2
:1000000000800020C93800085D3B00085F3B000805
:10001000613B0008633B0008653B000800000000EE
:10002000000000000000000000000000673B000826
:10003000693B0008000000006B3B00086D3B0008B6
:100040001939000819390008193900081939000848
:100050001939000819390008193900081939000838
:100060001939000819390008193900081939000828
:100070001939000819390008193900081939000818
:100080001939000800000000193900081939000862
:1000900019390008193900081939000819390008F8
:1000A00019390008713B000819390008193900088E
:1000B00019390008193900081939000819390008D8
:1000C00019390008193900081939000819390008C8
:1000D00019390008193900081939000819390008B8
:1000E00019390008193900081939000819390008A8
:1000F00019390008193900081939000800000000F2
:10010000000000001939000800000000193900083B
:1001100019390008000000001939000819390008D1
:100120001939000819390008193900081939000867
:10013000193900080000000000000000193900080B
:1001400019390008193900080000000000000000FB
:10015000000000000000000000000000000000009F
:100160000000000000000000000000001939000835
:100170001939000800000000000000000000000025
:100180000000000019390008000000000000000015
:10019000000000000000000000000000000000005F
:1001A000000000000000000019390008193900089B
:1001B0001939000819390008193900080000000031
:1001C00000000000193900080000000000000000D5
:0801D000193900081939000873
:1001D80018009FE518309FE5000053E11EFF2F012E
:1001E80010309FE5000053E31EFF2F0113FF2FE19E
:1001F80068050020680500200000000024009FE535
:1002080024309FE5003043E0A31FA0E1431181E0C3
:10021800C110B0E11EFF2F0110309FE5000053E32D
:100228001EFF2F0113FF2FE168050020680500203D
:100238000000000010402DE92C409FE50030D4E577
:10024800000053E30600001AE0FFFFEB1C309FE5B7
:10025800000053E318009F150000A0110130A0E32F
:100268000030C4E51040BDE81EFF2FE168050020FE
:10027800000000003887000820309FE5000053E3A5
:100288000500000A10402DE914109FE514009FE5B1
:100298000000A0E11040BDE8D7FFFFEAD6FFFFEA63
:1002A800000000006C05002038870008003090E549
:1002B800010113E3023183130231C303030080E019
:1002C8001EFF2FE1000051E3F0472DE91E00000A50
:1002D800017041E20050A0E10760A0E10040A0E306
:1002E800061084E0A11F81E0C110A0E1819185E0A2
:1002F8000900A0E1ECFFFFEB010057E10030A0E1AD
:100308008181A0E10B00000A080088E2020053E1A5
:10031800000085E00900008AE3FFFFEB010040E2EE
:10032800020050E1014081E2ECFFFF3A0900A0E140
:10033800F047BDE81EFF2FE1020050E1FAFFFF9AE7
:10034800010054E101604112E4FFFF1A0090A0E3AC
:100358000900A0E1F047BDE81EFF2FE1010050E3CE
:100368000800000A020050E30400000A1C309FE560
:10037800000050E30300A0010000A0131EFF2FE1BE
:100388000C009FE51EFF2FE108009FE51EFF2FE1EF
:10039800D40E0008E40E0008DC0E000830402DE9F9
:1003A80000319FE5000053E30040A0E10CD04DE28E
:1003B800025041E22700000A0500A0E104108DE286
:1003C8000000A0E1000050E31C00000A04109DE5B5
:1003D8000520A0E1BAFFFFEB002050E21700000A59
:1003E800B1FFFFEB043092E5010053E3480084E5D8
:1003F8002900000A000053E30130A0B3040082B2D0
:10040800020000BA040082E2A7FFFFEB0030A0E37D
:10041800503084E5003090E5000053E34C0084E55B
:10042800130000BAA0FFFFEB0030A0E10000A0E33A
:10043800103084E50CD08DE23040BDE81EFF2FE17E
:100448000030A0E30900A0E3103084E50CD08DE271
:100458003040BDE81EFF2FE14C309FE54C109FE572
:10046800031041E0C111A0E10300A0E104108DE5F3
:10047800D6FFFFEA230CA0E10F0000E2B6FFFFEB76
:10048800003050E20900A0030000A013103084E5FA
:100498000CD08DE23040BDE81EFF2FE10030A0E314
:1004A8000500A0E3E1FFFFEA00000000EC8B000874
:1004B800848D0008003090E5010013E310402DE919
:1004C8000040A0E10400001A020013E3500080E29B
:1004D8000900000A980300EB003094E5040013E3D8
:1004E8000900000A080013E30C00000A100013E3D7
:1004F8000F00000A1040BDE81EFF2FE18A0300EB41
:10050800003094E5040013E3F5FFFF1AD80084E2F5
:100518008D0300EB003094E5080013E3F2FFFF1AA7
:10052800560F84E28C0300EB003094E5100013E3CF
:10053800EFFFFF1A760F84E2A90300EB1040BDE835
:100548001EFF2FE10030A0E1000090E5000050E31D
:10055800030080101EFF2FE10900A0E31EFF2FE11A
:100568001EFF2FE170402DE90040A0E10160A0E1ED
:100578000400A0E1401096E587FFFFEB005050E231
:100588001000001A403096E50620A0E1143084E5FA
:100598000410A0E10100A0E3103094E50FE0A0E111
:1005A80013FF2FE1080050E3F0FFFF0A070050E3B4
:1005B8000400001A0500A0E1401096E5E7FFFFEBF4
:1005C800040086E2510300EBF000F0E7F0472DE964
:1005D80000A0A0E304C081E2F6DF4DE20C7090E5D4
:1005E800188090E50050A0E10240A0E10F00BCE8AF
:1005F8000CE08DE20F00AEE80F00BCE80F00AEE89B
:100608000F00BCE80F00AEE80F009CE808608DE220
:100618000F008EE808A08DE51E0000EA48309DE531
:100628007A2FA0E30610A0E1143085E51F0E8DE2B5
:10063800C60600EB0510A0E1103095E51F2E8DE2EF
:100648000A00A0E10FE0A0E113FF2FE100C0A0E144
:1006580028E29DE50910A0E10100A0E30530A0E132
:100668000520A0E140018DE850E08DE50C90A0E167
:100678000FE0A0E117FF2FE1004050E21D00001A33
:100688007A2FA0E30600A0E11F1E8DE2AF0600EB63
:10069800080059E31500001A0500A0E148109DE57F
:1006A8003DFFFFEB099084E2004050E2FFA009E221
:1006B800D9FFFF0A40109DE50530A0E150108DE5F7
:1006C8000520A0E10100A0E340018DE810108AE3B5
:1006D8000FE0A0E117FF2FE1000050E30500001A2A
:1006E8000400A0E1F6DF8DE2F047BDE81EFF2FE130
:1006F800070059E30400000A0940A0E30400A0E150
:10070800F6DF8DE2F047BDE81EFF2FE10400A0E10F
:1007180048109DE591FFFFEB0C008DE2FB0200EB1A
:10072800480090E51EFF2FE170402DE90040E0E30E
:100738003C3091E5403081E504E081E27ADF4DE22A
:100748000160A0E10050A0E10F00BEE804C08DE206
:100758000F00ACE80F00BEE80F00ACE80F00BEE8E1
:100768000F00ACE80F009EE80F008CE800408DE514
:10077800070000EA0D20A0E10510A0E1103095E582
:100788000FE0A0E113FF2FE1080050E30040A0E1D3
:100798000800001A0500A0E140109DE5FEFEFFEBF1
:1007A800000050E3F2FFFF0A0900A0E37ADF8DE2C0
:1007B8007040BDE81EFF2FE10D00A0E13CFFFFEBFC
:1007C800060054E3F7FFFF1A0610A0E10500A0E1B8
:1007D80063FFFFEB04E02DE502E0A0E13CC093E5F8
:1007E8000C1080E518E080E50020A0E30310A0E1EC
:1007F80040C083E504E09DE473FFFFEA70402DE903
:100808000C6090E5143090E5000056E3403081E537
:100818001300001A0120A0E1103090E50040A0E18B
:100828000150A0E10010A0E10200A0E30FE0A0E168
:1008380013FF2FE1070050E30400000A080050E30B
:100848000A00001A0510A0E10400A0E144FFFFEB34
:100858000600A0E1401095E540FFFFEB040085E2AB
:10086800AA0200EB0120A0E357FFFFEBF000F0E73E
:10087800F000F0E70C2090E5000052E33CC0911531
:100888000020A01340C081154FFFFF1AA5FFFFEA03
:100898001EFF2FE1083090E5000053E30010A0E1AF
:1008A8001EFF2F010100A0E313FF2FE1050051E314
:1008B80001F19F97150000EAF4080008D80800081D
:1008C80018090008D8080008D8080008E008000837
:1008D8000100A0E31EFF2FE1443090E500209DE5D4
:1008E8000000A0E3003082E51EFF2FE10F0052E375
:1008F800000053930500001A022180E0043092E5BD
:1009080000209DE50000A0E3003082E51EFF2FE1F6
:100918000200A0E31EFF2FE10030A0E304E02DE574
:1009280014D04DE20120A0E10C108DE200108DE5FD
:100938000310A0E1DCFFFFEB0C009DE514D08DE275
:1009480004E09DE41EFF2FE1050051E301F19F97AC
:10095800150000EA9009000874090008B4090008A5
:1009680074090008740900087C0900080100A0E364
:100978001EFF2FE100309DE5003093E5443080E50F
:100988000000A0E31EFF2FE10F0052E30000539385
:100998000500001A00309DE5003093E5022180E053
:1009A800043082E50000A0E31EFF2FE10200A0E36F
:1009B8001EFF2FE10030A0E304E02DE514D04DE246
:1009C8000CC08DE20C208DE500C08DE50120A0E172
:1009D8000310A0E1DBFFFFEB14D08DE204E09DE4FF
:1009E8001EFF2FE170402DE90040E0E33C3092E526
:1009F800403082E504C082E209DD4DE20060A0E1FA
:100A08000150A0E10F00BCE85CE08DE20F00AEE809
:100A18000F00BCE80F00AEE80F00BCE80F00AEE81E
:100A28000F009CE80F008EE858408DE5130000EA9F
:100A38000D20A0E10C10A0E358008DE2DCFFFFEBD5
:100A48000510A0E158008DE20FE0A0E116FF2FE1AC
:100A5800000050E30E00001A10309DE50D10A0E1D3
:100A68000800A0E358208DE20FE0A0E113FF2FE17A
:100A7800053040E2FB0013E30040A0E10500000A56
:100A88000D00A0E198109DE543FEFFEB000050E348
:100A9800E6FFFF0A0940A0E358008DE284FEFFEB61
:100AA8000400A0E109DD8DE27040BDE81EFF2FE1E2
:100AB800F04F2DE90260A0E14C2091E50150A0E142
:100AC800041092E424D04DE2000053E318208DE591
:100AD800037000E25B00000A02C0A0E32148A0E125
:100AE8000118A0E11D40CDE514108DE5FF4004E29A
:100AF800142C82E0508095E5020057E338209505D4
:100B0800018018E21CC0CDE50800000A0600A0E13B
:100B180014108DE28E0200EB000050E34500001A2D
:100B28000800A0E324D08DE2F04FBDE81EFF2FE1BE
:100B380000A092E500005AE3F3FFFF0A03B0A0E12A
:100B4800081000E202018DE902005BE3044092050F
:100B5800B240D211483095E5B0A0D2110890820277
:100B6800049082120F10A0E30120C4E30600A0E164
:100B7800038082E067FFFFEB8440A0E1024004E2CB
:100B880001300AE2000058E1033084E12300008AC2
:100B980001A0CAE3010053E308A08AE02E00000A7E
:100BA800020053E35900000A000053E32100001A31
:100BB800000057E300005A11AC00008A042089E2C3
:100BC80000A092E500005AE3DEFFFF1A0600A0E14C
:100BD80014108DE208809DE55D0200EB000050E3F3
:100BE8001400001A000058E3CCFFFF0A0F10A0E31E
:100BF8000600A0E147FFFFEB0E10A0E30020A0E1F4
:100C08000600A0E16AFFFFEB0F10A0E30600A0E1D9
:100C1800B0229FE566FFFFEB0700A0E3060000EAAD
:100C2800010053E32300000A020053E34600000AD0
:100C3800000053E3E0FFFF0A0900A0E324D08DE29F
:100C4800F04FBDE81EFF2FE10114A0E103C0A0E3AF
:100C580014108DE51D30CDE5A5FFFFEA000057E330
:100C68001600001A00005AE11000009A043099E5B5
:100C7800002099E5020073E3A22FA0E1EDFFFF0A2F
:100C8800584085E2010073E310408DE58500000AB5
:100C9800040089E22AFEFFEB10308DE20010A0E18B
:100CA8000500A0E16C1D00EB000050E35E00001A97
:100CB800082089E2C1FFFFEA000057E3FBFFFF0AB3
:100CC8000D10A0E30600A0E112FFFFEB204095E520
:100CD800000054E1F5FFFF1A283095E5030059E1BB
:100CE800F2FFFF1A0900A0E16FFDFFEB0F10A0E370
:100CF8000020A0E10600A0E12DFFFFEB0520A0E108
:100D08000010A0E30600A0E129FFFFEBC1FFFFEA06
:100D1800004099E5000057E30281C4E30E00001A81
:100D280000005AE10300009A04309DE5000058E3F2
:100D3800000053131E00000A000054E3049089B217
:100D4800013088E2032189E09CFFFFEA004099E531
:100D5800000057E30281C4E3F6FFFF0A0D10A0E389
:100D68000600A0E1EBFEFFEB20A095E500005AE1AC
:100D7800F0FFFF1A282095E5020059E1EDFFFF1A60
:100D88000420A0E30040A0E3302085E5022089E0AC
:100D9800288085E52C4085E5342085E5002099E507
:100DA800040052E1440000BA0130A0E308308DE5A8
:100DB800E2FFFFEA583085E20740A0E10C708DE5BC
:100DC80004A089E20370A0E10A0000EA0A00A0E199
:100DD80010708DE5DAFDFFEB0020A0E30010A0E124
:100DE80010308DE20500A0E11B1D00EB000050E370
:100DF80004A08AE21A00001A080054E1014084E2C3
:100E0800F1FFFF1A0D10A0E30600A0E1C1FEFFEB01
:100E18000020A0E110309DE50600A0E3202085E534
:100E2800243085E5289085E583FFFFEA0040A0E1AE
:100E38000D10A0E30600A0E1B6FEFFEB10609DE5F3
:100E4800020054E3200085E52C6085050640A0E1FA
:100E58002C4085020600A0E3244085E5289085E51E
:100E680075FFFFEA0C709DE5004099E5B1FFFFEAC8
:100E78000900A0E10CFDFFEB049089E20040A0E12D
:100E8800389085E50500A0E1431D00EB000050E324
:100E980068FFFF0A0420A0E10F10A0E30600A0E10C
:100EA800C3FEFFEB5BFFFFEA0D10A0E30600A0E125
:100EB80098FEFFEB200085E5E5FFFFEA012088E2C8
:100EC800020189E087FFFFEAB88500080030A0E347
:100ED800F6FEFFEA0130A0E3F4FEFFEA0230A0E3E9
:100EE800F2FEFFEAF0402DE90050A0E10240A0E147
:100EF80045DF4DE2050051E301F19F97840000EAC8
:100F0800480F0008880F00081C110008401000084E
:100F1800BC100008200F0008000052E3383090E5AC
:100F28007B00001A042093E4442080E5383080E5F3
:100F38000000A0E345DF8DE2F040BDE81EFF2FE191
:100F4800000053E37200001A0218A0E1382090E56F
:100F58000100A0E32118A0E104E085E210C311E03C
:100F680004C0921403C18E17013083E2100053E3CA
:100F7800F9FFFF1A020A14E338208505EBFFFFEAA0
:100F88000278A0E1FB2003E2010052E32448A0E13B
:100F98002778A0E15E00001A010053E3076084E0AF
:100FA8008C00000A200056E35900008A0F0054E321
:100FB8005900009A000057E3DCFFFF0A002090E583
:100FC800040012E304308DE50420C213D8208014F5
:100FD800DF00001B08608DE20600A0E1DC0000EBEA
:100FE8008720A0E1010042E2381095E5102044E294
:100FF80004309DE5822186E001C080E2040042E2DF
:101008000C2181E004C091E4020051E104C0A0E594
:10101800FBFFFF1A010053E39200000A0F0054E39C
:10102800381085E588008D92C300009B0600A0E17A
:10103800C50000EBBDFFFFEA030053E33400001ACC
:101048000278A0E12778A0E1223887E0100053E376
:101058002248A0E12E00008A003090E5080013E342
:101068007C00001A88608DE20600A0E1CB0000EB4E
:101078008730A0E1000053E338C095E5844186E05D
:10108800013043E20600000A04104CE0012094E716
:10109800013043E2010073E3042084E4FAFFFF1AFD
:1010A80087C18CE00600A0E138C085E5AA0000EB06
:1010B8009EFFFFEA100052E3000053931400001A49
:1010C800003090E5100013E35E00001A88608DE29E
:1010D8000600A0E1C70000EB0030A0E30100A0E398
:1010E8000610A0E1382095E510C314E004C092145E
:1010F800013083E200C08115040053E3041081E24B
:10110800F8FFFF1A0600A0E1382085E5B40000EBDF
:1011180086FFFFEA0200A0E385FFFFEA002090E5D2
:10112800100056E3011002E26500009A000051E346
:101138000700000A0500A0E10120C2E3022082E3C3
:10114800502080E404308DE57D0000EB002095E51B
:1011580004309DE5040012E304308D05107046E26A
:101168006400001A88608DE20600A0E1740000EBBC
:1011780008008DE2760000EB101064E28110A0E117
:10118800382095E504309DE5011041E2840186E0B0
:10119800011081E2040040E2011182E004C092E4FF
:1011A800020051E104C0A0E5FBFFFF1A000057E36D
:1011B8003B00000A8720A0E1100054E3010042E24E
:1011C8000420A0211020A03308608DE2102042E204
:1011D800822186E087FFFFEA100056E3CCFFFF8AF2
:1011E800100054E3CAFFFF0A001090E5010011E364
:1011F8002200000A0500A0E10310C1E3501080E4BA
:1012080004308DE54A0000EB04309DE5010053E30E
:101218001A00000A88608DE20600A0E104308DE51E
:10122800470000EB000057E3382095E52100000A4D
:1012380004309DE58710A0E1011041E20070A0E3B1
:10124800840186E0D1FFFFEA1030C3E3D83180E49F
:10125800680000EB9CFFFFEA0830C3E3583180E4E4
:101268004E0000EB7EFFFFEA88608DE2042082E2F8
:101278000600A0E1382085E52B0000EB2BFFFFEAF4
:1012880088608DE20600A0E104308DE5280000EBBF
:10129800000057E3382095E504309DE5F2FFFF0A8A
:1012A800E3FFFFEA010053E3EFFFFF0A0F0054E3F7
:1012B800381085E51DFFFF8A0600A0E11E0000EB3F
:1012C8001AFFFFEA000051E30210A0E1D0FFFF0A75
:1012D800050053E3C6FFFF1A0500A0E10120C2E3A1
:1012E800022082E3502080E404308DE5140000EBF6
:1012F80004309DE5C6FFFFEA0500A0E10420C2E333
:10130800D82080E404308DE5110000EB94FFFFEA5B
:10131800341080E2380091E80520A0E11C002DE996
:10132800FF0F90E800709DE81CFF2FE1210B90EC67
:101338001EFF2FE1210B80EC1EFF2FE1200B90EC0C
:101348001EFF2FE1200B80EC1EFF2FE1200BD0ECBD
:101358001EFF2FE1200BC0EC1EFF2FE10201F0EC75
:101368000211F0EC0221F0EC0231F0EC0241F0EC59
:101378000251F0EC0261F0EC0271F0EC0281F0EC49
:101388000291F0EC02A1F0EC02B1F0EC02C1F0EC39
:1013980002D1F0EC02E1F0EC02F1F0EC1EFF2FE1DB
:1013A8000201E0EC0211E0EC0221E0EC0231E0EC99
:1013B8000241E0EC0251E0EC0261E0EC0271E0EC89
:1013C8000281E0EC0291E0EC02A1E0EC02B1E0EC79
:1013D80002C1E0EC02D1E0EC02E1E0EC02F1E0EC69
:1013E8001EFF2FE10181B0FC0191B0FC01A1B0FC0E
:1013F80001B1B0FC1EFF2FE10181A0FC0191A0FC0E
:1014080001A1A0FC01B1A0FC1EFF2FE100E02DE925
:10141800FF1F2DE90030A0E30C002DE904108DE238
:10142800C0FCFFEB40E09DE548D08DE21EFF2FE1B8
:1014380000E02DE9FF1F2DE90030A0E30C002DE9A5
:1014480004108DE2ECFCFFEB40E09DE548D08DE216
:101458001EFF2FE100E02DE9FF1F2DE90030A0E37A
:101468000C002DE904108DE201FDFFEB40E09DE545
:1014780048D08DE21EFF2FE100E02DE9FF1F2DE986
:101488000030A0E30C002DE904308DE2D0FCFFEB26
:1014980040E09DE548D08DE21EFF2FE100E02DE9F8
:1014A800FF1F2DE90030A0E30C002DE904208DE298
:1014B8004BFDFFEB40E09DE548D08DE21EFF2FE19C
:1014C8000830D0E5000053E30B00001A0930D0E5DE
:1014D800000053E30F00000A0310A0E3042090E586
:1014E800013043E20930C0E504C082E2003092E5F1
:1014F80004C080E50810C0E5020000EA013043E2BC
:101508000830C0E5003090E50324A0E1002080E524
:10151800230CA0E11EFF2FE1B000A0E31EFF2FE186
:101528000030A0E304E02DE514D04DE20C108DE26C
:1015380000108DE50C20A0E30310A0E1DAFCFFEB1E
:101548000C009DE514D08DE204E09DE41EFF2FE120
:10155800F2FFFFEAF0432DE90070A0E30060A0E18C
:101568000150A0E114D04DE20500A0E1D3FFFFEB4C
:10157800B00050E30040A0E1D400000A800010E36E
:101588002C00000AF03000E2A00053E36700000AD4
:101598000A00008A800053E34900000A900053E3E0
:1015A8000200001A0D3000E20D0053E36D00001A2E
:1015B8000900A0E314D08DE2F043BDE81EFF2FE13F
:1015C800B00053E35000000AC00053E32F00001A94
:1015D800C60050E3AE00000AC70050E3BF00000A8F
:1015E800F83000E2C00053E3CA00000AC80050E324
:1015F800CD00000AC90050E3ECFFFF1A0500A0E186
:10160800AEFFFFEB0530A0E30110A0E300C0A0E1AE
:101618000C26A0E10FC00CE201C08CE00F2802E20A
:101628000600A0E102208CE12DFEFFEB000050E354
:10163800CCFFFF0ADDFFFFEA0031A0E1FF3003E243
:10164800048083E20030A0E308908DE20310A0E15B
:101658000D20A0E30600A0E100908DE592FCFFEBD1
:1016680008309DE5400014E308804310038088009B
:101678000030A0E30D20A0E30600A0E10310A0E1E4
:1016880000908DE508808DE5AEFCFFEBB5FFFFEA25
:10169800F83000E2D00053E3C4FFFF1A072000E24D
:1016A800012082E20530A0E30110A0E30600A0E1DA
:1016B800022782E30AFEFFEB000050E3A9FFFF0ABE
:1016C800BAFFFFEA0500A0E17CFFFFEB0444A0E1BC
:1016D800040080E1020950E3B4FFFF0A0030A0E3F0
:1016E800D8229FE50310A0E1002202E00042A0E119
:1016F8000600A0E1FAFDFFEB000050E3ABFFFF1A84
:10170800020914E30170A01396FFFFEAB13040E22A
:10171800040053E303F19F97A00000EA7C18000837
:1017280000180008E8170008C8170008A8170008DC
:101738000030E0E1FF2EA0E3073003E25223A0E1EE
:10174800080010E3FF2E02E2012982130030A0E313
:101758000600A0E10310A0E1E1FDFFEB000050E36B
:1017680080FFFF0A91FFFFEA0030A0E308808DE2C6
:101778000310A0E10F2000E200808DE50600A0E143
:1017880049FCFFEB0030A0E30D20A0E30310A0E12B
:101798000600A0E100808DE56AFCFFEB71FFFFEA1F
:1017A8000030A0E30C208DE200208DE50600A0E1CA
:1017B8000D20A0E30310A0E13BFCFFEB69FFFFEA6B
:1017C8000030A0E30510A0E30600A0E10320A0E19B
:1017D800C3FDFFEB000050E362FFFF0A73FFFFEA5F
:1017E8000500A0E135FFFFEB0130A0E300C0A0E158
:1017F8000310A0E185FFFFEA0030A0E308908DE226
:101808000D20A0E30310A0E10600A0E100908DE503
:1018180025FCFFEB0500A0E128FFFFEB800010E3AB
:101828000280A0E308409DE50700000A7F0000E26F
:10183800104884E00500A0E108408DE51FFFFFEB9C
:10184800800010E3078088E2F7FFFF1A0030A0E36A
:10185800814F84E2104884E00D20A0E30600A0E157
:101868000310A0E100908DE508408DE535FCFFEB05
:101878003CFFFFEA0500A0E110FFFFEB013040E26A
:10188800FF3003E20E0053E30020A0E1AEFFFF9A11
:1018980046FFFFEA0500A0E108FFFFEB00C0A0E15A
:1018A8000330A0E30C26A0E10FC00CE201C08CE2DB
:1018B8000F2802E20310A0E10600A0E102208CE15B
:1018C80087FDFFEB000050E326FFFF0A37FFFFEA22
:1018D800000057E32300000A0000A0E334FFFFEAFA
:1018E8000500A0E1F5FEFFEB013040E2FF3003E226
:1018F8000E0053E30020A0E12CFFFF8A0030A0E394
:101908000410A0E30600A0E175FDFFEB000050E322
:1019180014FFFF0A25FFFFEA0F2000E2012082E200
:101928000330A0E30A2882E388FFFFEA0500A0E16C
:10193800E2FEFFEB0020A0E10110A0E3F0C002E20C
:101948000F2002E210C08CE2012082E00530A0E303
:101958000600A0E10C2682E161FDFFEB000050E3E8
:1019680000FFFF0A11FFFFEA08408DE20730A0E1FF
:101978000710A0E10E20A0E30600A0E100408DE5DD
:10198800C9FBFFEB0F20A0E30730A0E10710A0E19F
:101998000600A0E100408DE5EAFBFFEBCDFFFFEA82
:1019A800FC3000E2B40053E300FFFF0A0130A0E37B
:1019B800072000E2032082E0022782E363FFFFEAB8
:1019C800FFFF00000130A0E103C0A0E304E02DE523
:1019D8004C2090E50300A0E1043092E514D04DE2DC
:1019E800082082E208208DE504108DE2232CA0E176
:1019F8000334A0E10CC0CDE504308DE50D20CDE524
:101A0800D3FEFFEB14D08DE204E09DE41EFF2FE12E
:101A180010402DE9CDFEFFEB1040BDE8480090E5F1
:101A28001EFF2FE110402DE9C8FEFFEB4C0090E5AA
:101A38000730D0E5030180E0080080E21040BDE8EF
:101A48001EFF2FE10030A0E110402DE90120A0E1A8
:101A580010109FE5000091E50310A0E1990200EB4A
:101A68001040BDE81EFF2FE10800002004E02DE52E
:101A78001C309FE50CD04DE20010A0E104208DE25F
:101A8800000093E58F0200EB0CD08DE204E09DE4AA
:101A98001EFF2FE108000020030010E330402DE96D
:101AA8003600000A000052E3013042E22F00000A2B
:101AB80000E0A0E1FF2001E2010000EA013053E26A
:101AC8002A00003A0120CEE403001EE3FAFFFF1AC1
:101AD800030053E31E00009AFFC001E20CC48CE02F
:101AE8000F0053E30CC88CE02700009A102043E253
:101AF8000F40C2E320508EE2045085E02242A0E16C
:101B080010208EE210C002E50CC002E508C002E514
:101B180004C002E5102082E2050052E1F8FFFF1A36
:101B2800012084E20C0013E302228EE00F3003E26E
:101B38001000000A04E043E203E0CEE304E08EE292
:101B48000EE082E004C082E402005EE1FCFFFF1ABE
:101B5800033003E2000053E3FF10011203308E103C
:101B68000200000A0110CEE403005EE1FCFFFF1A48
:101B78003040BDE81EFF2FE102E0A0E1F4FFFFEADC
:101B880000E0A0E10230A0E1D0FFFFEA0E20A0E1D2
:101B9800E7FFFFEAFF1011E20030A0E1032000E2B6
:101BA8002800000A000052E31F00001A30402DE907
:101BB800002090E5014481E0044884E004E19FE5C9
:101BC80004519FE502C024E0010000EA0420B0E5CA
:101BD80004C022E00E3082E00230C3E10E208CE027
:101BE8000C20C2E1023083E1050013E1F6FFFF0A91
:101BF8000030D0E5000053E30300001A2F0000EA8C
:101C08000130F0E5000053E32C00000A030051E125
:101C1800FAFFFF1A3040BDE81EFF2FE1010052E134
:101C28001EFF2F01030013E32200000A0020D3E562
:101C3800000052E30300A0E1013083E2F6FFFF1A3F
:101C48000200A0E11EFF2FE1000052E30600000A97
:101C58000300A0E10120D3E4000052E31EFF2F019E
:101C6800030013E3F9FFFF1A0300A0E1002090E549
:101C780050C09FE550109FE50C3082E00230C3E170
:101C8800010013E10400001A0420B0E50C3082E0E2
:101C98000230C3E1010013E1FAFFFF0A0030D0E58A
:101CA800000053E31EFF2F010130F0E5000053E36D
:101CB800FCFFFF1A1EFF2FE10300A0E1BAFFFFEAB5
:101CC8000300A0E1D2FFFFEAFFFEFEFE80808080D5
:101CD80001C020E003001CE32100001A03C010E249
:101CE8000300C0E30310C1E3042090E4043091042E
:101CF8000600000A03C02CE2FF34E0E38CC1A0E137
:101D080033CCA0E1043091E40C2082E10C3083E173
:101D180004402DE50140A0E3044484E1044884E143
:101D280004C042E0030052E102C0CC0184031C015C
:101D38000420900404309104F8FFFF0A020CA0E18B
:101D48002224A0E1010050E3030C50212334A00118
:101D5800F9FFFF0AFF3003E2200C63E004409DE432
:101D68001EFF2FE1030010E30600000A0120D0E463
:101D78000130D1E4010052E303005221F8FFFF0AC9
:101D8800030042E01EFF2FE130002DE90140A0E3EF
:101D9800044484E1044884E1042090E4035001E20F
:101DA8000310C1E3043091E4020055E31700000A70
:101DB8002D00008AFF54C2E3230455E104C042E029
:101DC80002C0CCE10700001A84C31CE0043091046F
:101DD8000600001A025025E0030C55E10800001A1D
:101DE800042090E4F2FFFFEA2334A0E1360000EA81
:101DF800FFC4DCE33100001A0030D1E5225CA0E129
:101E0800310000EA225CA0E1FF3003E22E0000EA84
:101E18000258A0E104C042E02558A0E102C0CCE18C
:101E2800230855E10E00001A84C31CE00430910415
:101E38000400001A025025E0030855E10600001AC4
:101E4800042090E4F1FFFFEA0CC8B0E11B00001A7F
:101E5800B030D1E12258A0E11B0000EA0338A0E12C
:101E68002258A0E12338A0E1170000EAFF5002E25F
:101E7800230C55E104C042E002C0CCE10700001A7F
:101E880084C31CE0043091040600001A025025E0C7
:101E9800030455E10600001A042090E4F2FFFFEA6B
:101EA800233CA0E1080000EAFF0012E30300000A57
:101EB800043091E42254A0E1FF34C3E3020000EAB5
:101EC8000000A0E33000BDE81EFF2FE1FF2005E27F
:101ED800FF0003E2010050E3020050212554A00155
:101EE8002334A001F8FFFF0A000042E03000BDE8FB
:101EF8001EFF2FE1F04F2DE90190A0E102A0A0E123
:101F08000380A0E10150A0E10CD04DE2B4C19FE5EF
:101F180004008DE50530A0E10140D5E40460DCE76C
:101F2800086016E2FAFFFF1A2D0054E34A00000A7F
:101F38002B0054E30040D505025083021030D8E34B
:101F48003400000A0810A0E10000E0E3150600EBE9
:101F58000810A0E10070A0E10000E0E308B0A0E1F3
:101F68004D0600EB0020A0E30200A0E1090000EA12
:101F7800072040E0003072E20230A3E001005CE19B
:101F88000030A0D3000053E31400001A0120A0E39E
:101F98009BC020E00140D5E430C044E209005CE386
:101FA8000700009A413044E2190053E337C04492D5
:101FB8000300009A613044E2190053E30900008AE3
:101FC80057C044E20C0058E1060000DA070050E16F
:101FD8000030A0930130A083A23F93E1E3FFFF0A02
:101FE8000020E0E3EAFFFFEA010072E31200000AC2
:101FF800000056E30000601200005AE30200000AE5
:10200800000052E31200001A00908AE50CD08DE21D
:10201800F04FBDE81EFF2FE1300054E31200000A24
:10202800000058E32200001A0A80A0E30510A0E38C
:1020380008B0A0E190709FE5C9FFFFEA2230A0E355
:1020480004109DE500005AE30200A0E1003081E59C
:10205800EDFFFF0A019045E2EAFFFFEA0040D5E5FF
:102068000160A0E3025083E2B3FFFFEA0030D5E548
:10207800DF3003E2580053E30600000A000058E38B
:102088000B00001A0880A0E30710A0E30E72E0E33B
:1020980008B0A0E1B2FFFFEA1080A0E30140D5E557
:1020A8000F10A0E30F72E0E308B0A0E1025085E250
:1020B800ABFFFFEA1080A0E30F10A0E30F72E0E38C
:1020C80008B0A0E1A6FFFFEA698700089999991965
:1020D80087FFFFEA01C0A0E104E02DE500E0A0E1F0
:1020E8000230A0E110209FE50E10A0E1000092E56B
:1020F80004E09DE40C20A0E17DFFFFEA0800002039
:1021080001C0A0E104E02DE500E0A0E10230A0E17B
:1021180010209FE50E10A0E1000092E504E09DE488
:102128000C20A0E172FFFFEA0800002004309FE5C0
:10213800000093E51EFF2FE1080000200600A0E341
:1021480010402DE9AA0100EB0100A0E38D0600FA7A
:102158000F0052E30C00009A013080E1030013E302
:102168000030A011012042120C00000A012082E276
:10217800013043E2022081E001C0D1E4020051E1D4
:1021880001C0E3E5FBFFFF1A1EFF2FE1000052E349
:102198000030A0E1012042E2F3FFFF1A1EFF2FE109
:1021A80000C0A0E1F0412DE9107042E20F70C7E3D2
:1021B800107087E210E081E2073080E010801EE5B1
:1021C80010808CE40C601EE508501EE504401EE5F6
:1021D80003005CE10C600CE508500CE504400CE5DC
:1021E80010E08EE2F4FFFF1A0C0012E30FC002E2C7
:1021F8000C20A001071081E00D00000A0140A0E1B9
:1022080004C04CE20360CCE32CE1A0E1066083E06B
:1022180004C043E2045094E40450ACE506005CE1D9
:10222800FBFFFF1A01C08EE2032002E20C3183E0BB
:102238000C1181E0000052E3012042E201208212E9
:1022480001304312022081100300000A01C0D1E4CA
:10225800020051E101C0E3E5FBFFFF1AF041BDE8D0
:102268001EFF2FE101C0A0E110402DE900E0A0E130
:102278000230A0E10E10A0E10200A0E30C20A0E1D2
:102288006D0000EB1040BDE81EFF2FE1030052E394
:102298000F00008A000052E301C042E20130401200
:1022A800011041120C2080100300001A0000A0E366
:1022B8001EFF2FE1030052E1FBFFFF0A0100F3E5D7
:1022C80001C0F1E50C0050E1F9FFFF0A0C0040E005
:1022D8001EFF2FE110402DE900E081E103001EE31D
:1022E80000C0A0E10130A0E11000000A01C042E2F4
:1022F800013040E2011041E20C2080E0010000EAD8
:10230800030052E11500000A0100F3E501C0F1E500
:102318000C0050E1F9FFFF0A0C0040E01040BDE856
:102328001EFF2FE1042042E2030052E30600009A58
:102338000310A0E10C00A0E104E093E404409CE455
:102348000E0054E1F6FFFF0AE7FFFFEA000052E340
:102358000C00A0E10310A0E101C042E2E3FFFF1A74
:102368000000A0E31040BDE81EFF2FE110402DE95A
:1023780010309FE50010A0E1000093E50A0200EB91
:102388001040BDE81EFF2FE10800002010402DE995
:1023980010309FE50010A0E1000093E5280400EB51
:1023A8001040BDE81EFF2FE10800002070402DE915
:1023B80074309FE574509FE5050053E1056043E0E4
:1023C8000800000A0040A0E34661A0E1045045E28D
:1023D8000430B5E5014084E20FE0A0E113FF2FE1EE
:1023E800040056E1F9FFFF8AD01800EB40509FE542
:1023F80040309FE5056043E0050053E14661A0E1F8
:102408000700000A0040A0E3045045E20430B5E5A7
:10241800014084E20FE0A0E113FF2FE1040056E140
:10242800F9FFFF8A7040BDE81EFF2FE1848D000888
:10243800848D0008848D0008948D000810402DE9D3
:1024480078E09FE500C09EE500005CE370C09F0552
:1024580000C08E0504E09CE51F005EE3150000CA7D
:10246800000050E30600001A0000A0E301308EE2ED
:1024780002E08EE204308CE50E118CE71040BDE8D6
:102488001EFF2FE1020050E30100A0E30E418CE0A3
:10249800882084E5102EA0E188019CE5020080E1F7
:1024A80088018CE5083184E58C319C050230830174
:1024B8008C318C05EBFFFFEA0000E0E3EEFFFFEA5A
:1024C8008408002084050020F0472DE9C0909FE58E
:1024D8000080A0E10160A0E10270A0E1610100EBD1
:1024E800005099E5000055E31B00000A0030D6E5CE
:1024F800000053E33D0053130640A0E10300000A27
:102508000130F4E5000053E33D005313FBFFFF1ACD
:102518003D0053E31000000A000095E5000050E379
:10252800064044E00C00000A0420A0E10610A0E1E7
:10253800620100EB000050E30400001A000095E57A
:102548000430D0E73D0053E304A080E00700000A10
:102558000400B5E5000050E3F2FFFF1A0800A0E10F
:10256800410100EB0000A0E3F047BDE81EFF2FE1AA
:10257800003099E5035045E04551A0E10800A0E18D
:10258800005087E5380100EB01008AE2F047BDE81A
:102598001EFF2FE14005002004E02DE50CD04DE2A0
:1025A80004208DE2C7FFFFEB0CD08DE204E09DE430
:1025B8001EFF2FE10030A0E310402DE90010A0E13C
:1025C8000320A0E10300A0E19BFFFFEB1040BDE862
:1025D8001EFF2FE170402DE9184190E5000054E3FB
:1025E8000200000A0000A0E37040BDE81EFF2FE1D2
:1025F8008010A0E30050A0E16B0100EB000050E365
:10260800180185E50500000A043040E27C2080E2DC
:102618000440A3E5020053E1FCFFFF1AF0FFFFEAC4
:102628000000E0E3EFFFFFEA1F0051E31630A0834C
:1026380030402DE90050A0E1003080850CD04DE2FB
:102648001700008A183190E5000053E30140A0E12B
:102658000400000A040193E7042183E70CD08DE20B
:102668003040BDE81EFF2FE18010A0E304208DE577
:102678004D0100EB000050E30030A0E1180185E5B2
:10268800041040127CC0801204209DE50000A013B5
:102698000300000A0400A1E50C0051E1FCFFFF1A49
:1026A800EBFFFFEA0000E0E3EBFFFFEA1F0051E366
:1026B80070402DE91630A0830050A0E10000E083AF
:1026C800003085851300008A182195E5000052E343
:1026D8000140A0E11100000A013192E7000053E334
:1026E8000E00000A010053E30900000A010073E329
:1026F8001630A0030100A003003085050500000A7C
:102708000010A0E30400A0E1041182E70FE0A0E1BB
:1027180013FF2FE10000A0E37040BDE81EFF2FE18A
:102728000500A0E1E10000EB0420A0E10010A0E119
:102738000500A0E1CD0000EB7040BDE81EFF2FE1D1
:102748001F0051E32800008A183190E5000053E388
:1027580070402DE90140A0E10050A0E11300000AFB
:10276800042193E7000052E30100A003043183E051
:102778000A00000A010072E30A00000A010052E39D
:102788000300A0030500000A0050A0E30400A0E134
:10279800005083E50FE0A0E112FF2FE10500A0E162
:1027A8007040BDE81EFF2FE10200A0E3FBFFFFEA37
:1027B8008010A0E3FC0000EB000050E30030A0E133
:1027C800180185E50600000A0000A0E3042043E2A2
:1027D8007C1083E20400A2E5010052E1FCFFFF1A2D
:1027E800DEFFFFEA0000E0E3ECFFFFEA0000E0E3C1
:1027F8001EFF2FE18C309FE51F0050E370402DE94C
:10280800005093E51630A0830000E08300308585F2
:102818001200008A182195E5000052E30040A0E16B
:102828001000000A003192E7000053E30D00000A8F
:10283800010053E30800000A010073E31630A00307
:102848000100A003003085050400000A0010A0E381
:10285800041182E70FE0A0E113FF2FE10000A0E3DD
:102868007040BDE81EFF2FE10500A0E18F0000EBDE
:102878000420A0E10010A0E10500A0E17B0000EB2E
:102888007040BDE81EFF2FE10800002078309FE56A
:102898001F0050E370402DE9006093E51630A083D7
:1028A800003086851600008A183196E5000053E34B
:1028B8000040A0E10150A0E10300000A040193E7F1
:1028C800045183E77040BDE81EFF2FE18010A0E3AC
:1028D8000600A0E1B40000EB000050E30030A0E1E6
:1028E800180186E5042040120010A0137C00801215
:1028F8000300000A0410A2E5000052E1FCFFFF1AE1
:10290800EDFFFFEA0000E0E3EDFFFFEA080000202A
:1029180054309FE570402DE9005093E5184195E546
:10292800000054E30200000A0000A0E37040BDE884
:102938001EFF2FE18010A0E30500A0E19A0000EB44
:10294800000050E3180185E50500000A043040E264
:102958007C2080E20440A3E5020053E1FCFFFF1A5B
:10296800F0FFFFEA0000E0E3EFFFFFEA08000020C5
:10297800A8309FE51F0050E370402DE9005093E513
:102988002400008A0040A0E1180195E5000050E30A
:102998001300000A042190E7000052E3043180E0AC
:1029A8000100A0030A00000A010072E30A00000AFD
:1029B800010052E30300A0030500000A0050A0E351
:1029C8000400A0E1005083E50FE0A0E112FF2FE131
:1029D8000500A0E17040BDE81EFF2FE10200A0E362
:1029E800FBFFFFEA8010A0E30500A0E16E0000EB0A
:1029F800000050E3180185E50600000A0010A0E376
:102A0800043040E27C2080E20410A3E5020053E198
:102A1800FCFFFF1ADEFFFFEA0000E0E3ECFFFFEA3D
:102A28000800002070402DE930509FE530409FE5B8
:102A3800044045E04441B0E10500000A043035E5B2
:102A4800014044E20FE0A0E113FF2FE1000054E34E
:102A5800F9FFFF1A3B1700EB7040BDE81EFF2FE19E
:102A6800988D0008948D00081EFF2FE11EFF2FE1AE
:102A780000C0A0E370402DE92C509FE50040A0E184
:102A88000100A0E10210A0E100C085E5390400FAC8
:102A9800010070E30200001A003095E5000053E3DE
:102AA800003084157040BDE81EFF2FE18808002023
:102AB80010402DE92E0400FA1040BDE81EFF2FE15A
:102AC800000052E32E00000A01C080E103001CE36D
:102AD800F0402DE90130A0E10040A0E11400001A07
:102AE800030052E31200009AB4609FE5B4709FE5BA
:102AF800050000EA042052E21E00000A07001EE159
:102B08001C00001A030052E32200009A0310A0E1FF
:102B180000C094E506308CE00CE0C3E10130A0E190
:102B2800045093E405005CE10400A0E1044084E261
:102B3800EFFFFF0A00C0D0E50040D1E504005CE1EA
:102B48001100001A010052E300005C130900000A9A
:102B580000E0A0E101C0FEE50140F1E50E3042E0F1
:102B680004005CE1013063E20700001A030050E151
:102B780000005C13F6FFFF1A0000A0E3F040BDE878
:102B88001EFF2FE10200A0E11EFF2FE104004CE030
:102B9800F040BDE81EFF2FE10400A0E10310A0E112
:102BA800E3FFFFEAFFFEFEFE80808080F04F2DE904
:102BB8000B3081E2160053E30070A0E10CD04DE227
:102BC8001C00008A100051E38100008AE20200EB39
:102BD8001050A0E31830A0E30200A0E33C679FE593
:102BE800033086E0044093E5082043E2020054E104
:102BF8000A01000A043094E50C2094E50330C3E38D
:102C0800081094E5033084E00C2081E5081082E583
:102C1800042093E5012082E30700A0E1042083E576
:102C2800CE0200EB084084E20400A0E10CD08DE263
:102C3800F04FBDE81EFF2FE10750C3E3050051E147
:102C48000010A0930110A083A31F91E16000001A57
:102C5800C10200EB7E0F55E33401003AA534B0E120
:102C68005F00000A040053E30C01008A2533A0E149
:102C7800390083E238C083E28011A0E19C669FE5B9
:102C8800011086E0044091E5081041E2040051E19A
:102C98000600001A0B0000EA000052E30C2094E53D
:102CA800D6FFFFAA020051E10600000A0240A0E197
:102CB800043094E50330C3E3052043E00F0052E3FA
:102CC800F4FFFFDA0C00A0E1104096E550869FE57E
:102CD800080054E104E096051800000A041094E581
:102CE8000310C1E3053041E00F0053E31A0100CAA5
:102CF800000053E3108086E5148086E50E0100AAE3
:102D0800020C51E304E096E5C900002A0120A0E383
:102D1800A131A0E1023083E0A112A0E112E18EE12D
:102D2800831196E7832186E0082042E2081084E5B3
:102D38000C2084E504E086E5834186E70C4081E5C4
:102D480001C0A0E34031A0E11CC3A0E10E005CE19A
:102D58002700008A0E001CE10800001A8CC0A0E1C0
:102D68000300C0E30E001CE1040080E20300001A27
:102D78008CC0A0E10E001CE1040080E2FBFFFF0A0A
:102D880080A186E00AE0A0E10090A0E10C309EE579
:102D9800080000EA042093E50320C2E3051042E09E
:102DA8000F0051E30340A0E10C3093E5C40000CAD2
:102DB800000051E3D30000AA03005EE1F4FFFF1A0C
:102DC800019089E2030019E308E08EE2EEFFFF1AA2
:102DD800FC0000EA0C30A0E3003087E50040A0E3E7
:102DE80090FFFFEA021CA0E34000A0E33FC0A0E37D
:102DF800A1FFFFEA084096E5049094E50390C9E333
:102E0800050059E10020A0230120A033053049E046
:102E18000F0053E3012082D3000052E37200000A3E
:102E280000B59FE5093084E00800A0E300809BE539
:102E380000308DE53C0200EB081496E5108088E22E
:102E4800010071E3058088E0018048120080881045
:102E5800001060120180081000008DE50810A0E144
:102E68000700A0E13E0200EB010070E300A0A0E132
:102E780000209DE55100000A093084E0000053E17C
:102E88003B00009A060054E14C00001A04E09BE560
:102E98000EE088E004E08BE501C042E2081496E504
:102EA800010071E30930841003004A100E008010FD
:102EB80008A4860504008B1507301AE200308DE55A
:102EC800D900000A081063E201A08AE008808AE0BD
:102ED800012082E00C1008E0012042E00C1002E022
:102EE8000700A0E104108DE51D0200EB010070E36E
:102EF800F500000A04109DE50A0040E0018080E02A
:102F080004209BE5018088E3021081E0060054E17B
:102F180008A086E504108BE504808AE52100000AF4
:102F28000F0059E30130A09304308A95B600009A47
:102F380005C0A0E3040094E50C2049E20720C2E3A1
:102F4800010000E2020080E10F0052E3022084E069
:102F5800040084E504C082E508C082E51100009AF7
:102F6800081084E20700A0E1350100EB04109BE59E
:102F78000C0000EA04109BE5011088E001E0A0E1E4
:102F880004108BE501C042E2C3FFFF1A093084E058
:102F98000C0013E1C0FFFF1A080096E5082089E03D
:102FA800012082E3042080E52C209BE5010052E10A
:102FB80030209BE52C108B35010052E130108B3509
:102FC800084096E5043094E50330C3E3030055E177
:102FD8000020A0930120A083053043E00F0053E3B5
:102FE800012082D3000052E38700001A052084E004
:102FF800013083E3015085E3045084E50700A0E134
:10300800082086E5084084E2043082E5D30100EB1D
:103018000400A0E10CD08DE2F04FBDE81EFF2FE1C7
:103028000C4093E5040053E10200800225FFFF0AEB
:10303800EFFEFFEA0A0C51E3A134A0E15400003A84
:10304800140053E38300008A5C2083E28221A0E11C
:103058005B3083E202C096E7022086E0082042E265
:103068000C0052E10300001A6A0000EA08C09CE55F
:103078000C0052E10300000A04309CE50330C3E36E
:10308800010053E1F8FFFF8A0C209CE50C2084E541
:1030980008C084E5084082E50C408CE527FFFFEA7C
:1030A800140053E33F00009A540053E37000008A71
:1030B8002536A0E16F0083E26EC083E28011A0E1B3
:1030C800EDFEFFEA08E094E505C084E0015085E3E1
:1030D800045084E50C308EE508E083E5013081E397
:1030E80010C086E514C086E50700A0E10C808CE5D9
:1030F80008808CE504308CE5021084E7970100EB2A
:10310800084084E2C7FEFFEA022084E0041092E54A
:10311800011081E3041082E50820B4E50700A0E16E
:103128000C3082E5082083E58C0100EBBDFEFFEA48
:10313800A501A0E1083085E2A7FEFFEA011084E0BE
:10314800043091E5013083E30700A0E1043081E514
:10315800820100EB084084E2B2FEFFEA052084E029
:1031680001C083E3015085E3045084E50700A0E132
:10317800102086E5142086E50C8082E5088082E52B
:1031880004C082E5013084E7740100EB084084E262
:10319800A4FEFFEA2133A0E1392083E28221A0E1E5
:1031A800383083E2AAFFFFEA5C0083E25BC083E277
:1031B8008011A0E1B0FEFFEA08301AE40A0053E1EA
:1031C800010040E25300001A030010E3F9FFFF1A60
:1031D800043096E50C30C3E1043086E58CC0A0E1EC
:1031E80001204CE2030052E101FFFF2A03001CE129
:1031F8000300001A8CC0A0E103001CE1049089E2DE
:10320800FBFFFF0A0900A0E1DCFEFFEA0700A0E1DE
:10321800520100EBF0FEFFEA0110A0E34331A0E108
:1032280011E38EE104E086E597FFFFEA08108AE0E3
:103238000C1001E0012042E00C1002E00700A0E1C0
:1032480004108DE5460100EB010070E328FFFF1A2A
:1032580000109DE529FFFFEA540053E30B00008AA4
:103268002136A0E16F2083E28221A0E16E3083E263
:1032780077FFFFEA550F53E30B00008AA537A0E15B
:10328800780083E277C083E28011A0E17AFEFFEA4A
:10329800550F53E31200008AA137A0E1782083E29A
:1032A8008221A0E1773083E269FFFFEA78209FE579
:1032B800020053E11300008A2539A0E17D0083E272
:1032C8007CC083E28011A0E16BFEFFEA00309DE53F
:1032D800082043E2028088E00010A0E30A8048E06A
:1032E80006FFFFEA40209FE5020053E12139A09143
:1032F8007D208392FE2FA0837E30A0837C30839232
:103308008221A09152FFFFEAFE1FA0E37F00A0E305
:103318007EC0A0E358FEFFEA043096E5AEFFFFEA60
:10332800300100203801002050080020540500001A
:10333800F0412DE90060A0E10800A0E30150A0E100
:10334800F90000EB0040A0E1E8809FE50600A0E15D
:10335800010100EB083098E5047093E50370C7E3BA
:10336800110047E2050040E00410A0E1040080E0FD
:103378000C0100EB015040E2940505E0050054E122
:10338800060000CA0010A0E30600A0E1F40000EB6C
:10339800083098E5073083E0030050E10400000A94
:1033A8000600A0E1ED0000EB0000A0E3F041BDE85D
:1033B8001EFF2FE10600A0E1001065E2E80000EB27
:1033C800010070E30C00000A083098E568209FE5CA
:1033D800057047E0017087E3047083E5003092E5EB
:1033E8000600A0E1053043E0003082E5DB0000EB99
:1033F8000100A0E3F041BDE81EFF2FE10010A0E3AB
:103408000600A0E1D60000EB082098E5023040E075
:103418000F0053E3E1FFFFDA013083E3043082E574
:1034280018309FE5003093E50C109FE5030040E05D
:10343800000081E5D9FFFFEA300100205408002090
:103448003805002070402DE9004051E23200000AA2
:103458000050A0E1C00000EBBC229FE5040014E589
:10346800083092E508C044E20110C0E301E08CE0B6
:103478000E0053E104309EE50330C3E36400000A04
:10348800010010E304308EE503008EE02400001AEA
:10349800084014E504C04CE0041081E008409CE5B5
:1034A800040090E5086082E2060054E1010000E2B1
:1034B8004900000A000050E30C009CE50C0084E57C
:1034C800084080E56800000A013081E304308CE59B
:1034D80000108EE5020C51E31900002A01E0A0E378
:1034E800A102A0E1A131A0E1041092E5013083E23C
:1034F8001E1081E1041082E5830192E7831182E0C6
:10350800081041E20C108CE508008CE583C182E7C5
:103518000CC080E50500A0E1900000EB7040BDE81C
:103528001EFF2FE1040090E5010010E31E00000AD1
:10353800013081E3020C51E3043004E500108EE50C
:10354800E5FFFF3A0A0C51E3A134A0E14800002A44
:103558002133A0E1390083E238E083E28001A0E171
:10356800003092E7000082E0080040E2030050E1EA
:103578000300001A4B0000EA083093E5030050E10D
:103588000300000A042093E50320C2E3010052E18E
:10359800F8FFFF8A0C0093E50C008CE508308CE5F9
:1035A80008C080E50CC083E5D9FFFFEA031081E07D
:1035B800086082E208309EE5060053E13F00000AF9
:1035C8000C009EE50C0083E5083080E5013081E3BE
:1035D80004308CE501108CE7BDFFFFEA000050E3E2
:1035E8000130811304308C1500108E15C8FFFF1AA6
:1035F800013083E008108EE2060091E80C2081E596
:10360800081082E5012083E304208CE503308CE771
:10361800BFFFFFEA010010E3033081E00600001A53
:10362800081014E501C04CE008008CE2013083E08A
:10363800030090E80C1080E5080081E5011083E3A1
:1036480004108CE5D4109FE508C082E5002091E5C0
:10365800030052E1AEFFFF8AC4309FE50500A0E1F8
:10366800001093E531FFFFEBA9FFFFEA031081E0AB
:10367800CFFFFFEA140053E30600009A540053E317
:103688001500008A2136A0E16F0083E26EE083E234
:103698008001A0E1B1FFFFEA5C0083E25BE083E226
:1036A8008001A0E1ADFFFFEA0140A0E3041092E52C
:1036B8004EE1A0E1141E81E1041082E5B5FFFFEAA6
:1036C800013081E314C082E510C082E548008CE92E
:1036D8000C608CE501108CE78DFFFFEA550F53E372
:1036E8000400008AA137A0E1780083E277E083E252
:1036F8008001A0E199FFFFEA28009FE5000053E15F
:103708002139A0917D008392FE0FA0837EE0A083E3
:103718007CE083928001A09190FFFFEA30010020B5
:103728003C0500205008002054050000080050E324
:103738000100001A010AA0E31EFF2FE110402DE945
:1037480079FAFFEB1620A0E30030A0E11040BDE8B5
:103758000000E0E3002083E51EFF2FE11EFF2FE1BC
:103768001EFF2FE10020A0E370402DE930509FE5B7
:103778000040A0E10100A0E1002085E5040100FA75
:10378800010070E30100000A7040BDE81EFF2FE150
:10379800003095E5000053E3003084157040BDE823
:1037A8001EFF2FE188080020012051E21EFF2F0193
:1037B8003600003A010050E12200009A020011E1AF
:1037C8002300000A0E0211E38111A0010830A003B2
:1037D8000130A013010251E3000051310112A03160
:1037E8000332A031FAFFFF3A020151E300005131E0
:1037F8008110A0318330A031FAFFFF3A0020A0E306
:10380800010050E10100402003208221A10050E185
:10381800A1004020A3208221210150E12101402064
:1038280023218221A10150E1A1014020A32182216D
:10383800000050E32332B0112112A011EFFFFF1A4C
:103848000200A0E11EFF2FE10100A0030000A01369
:103858001EFF2FE1010851E32118A0211020A02309
:103868000020A033010C51E32114A021082082225A
:10387800100051E32112A02104208222040051E308
:1038880003208282A12082903002A0E11EFF2FE156
:10389800000050E30000E013070000EA000051E3D5
:1038A800FAFFFF0A03402DE9BEFFFFEB0640BDE823
:1038B800920003E0031041E01EFF2FE11EFF2FE1FD
:1038C8000D48854600F086F90C480D490D4A00233D
:1038D80002E0D458C4500433C4188C42F9D30A4ABD
:1038E8000A4C002301E013600432A242FBD3FEF726
:1038F8005DFD01F0B1FEFEE7008000200000002021
:1039080068050020988D0008680500206C090020D3
:10391800FEE700000B4B1A6E42F001021A661A6E9F
:1039280082B002F001020092009A9A6D42F0805231
:103938009A659B6D03F080530193019B02B000F0E0
:10394800D9BA00BF0010024010B598B0044614223E
:10395800002102A8FEF7A0F84422002107A8FEF7DC
:103968009BF82268214B9A423DD14FF4805307932C
:1039780007A84FF00073139300F02AFE08B101F076
:1039880068FE1B4B9A6D42F000729A659A6D02F0C0
:1039980000720092009ADA6C42F00102DA64DB6C81
:1039A80003F0010301934FF4C052019B022300244A
:1039B800CDE9022302A909234FF090400693CDE9EF
:1039C800044400F06FF922462146152000F02AF938
:1039D800152000F059F916202246214600F022F958
:1039E800162000F051F918B010BD00BF0064004067
:1039F8000010024010B5044688B01422002103A824
:103A0800FEF74AF82268124B9A421ED103F560432A
:103A180003A91A6E42F480521A661A6E02F4805292
:103A28000192019ADA6C42F00102DA64DB6C03F06D
:103A380001030293029BE0220223CDE903234FF006
:103A480090400523079300F02DF908B010BD00BF82
:103A5800003001400268084B9A4282B00AD103F54F
:103A680003339A6D42F002029A659B6D03F00203DC
:103A78000193019B02B070470004004010B5044652
:103A880086B01422002101A8FEF706F822680C4B24
:103A98009A4213D103F503330A48DA6C42F0020262
:103AA800DA64DB6C03F002030093009B102202230C
:103AB80001A9CDE90123059300F0F4F806B010BD83
:103AC80000040040000400481D4B70B51A6E1D4DDF
:103AD80042F400621A661B6E88B003F4006301A901
:103AE8000293064603A8029B00F054FD00F040FD37
:103AF800154B2B6040F2E733EB60144BB0FBF3F04F
:103B080001380023686028462B61AB6001F01EF97C
:103B1800044680B9284600F0B9FF044658B9192070
:103B280000F0B2F80F2E09D822463146192000F0CD
:103B380079F8074B1E60204608B070BD0124FAE7EB
:103B4800001002408C080020002C014040420F0069
:103B580048050020FEE7FEE7FEE7FEE7FEE77047C0
:103B68007047704770470000014800F0CBBF00BFA6
:103B78008C0800200120704708B5FEF7D7FA1623F5
:103B880003604FF0FF3008BD08B5FEF7CFFA1623E3
:103B98000360FEE70B4A116810B5034609B90A49E4
:103BA8001160106809490A4C0344091B8B4206D965
:103BB800FEF7BCFA0C2303604FF0FF3010BD136012
:103BC800FCE700BFDC08002070090020008000200E
:103BD80000040000704710B5032000F011F80F2012
:103BE800FFF772FF044618B9FFF794FE204610BD90
:103BF8000124FBE7014B1868704700BFE00800206C
:103C08000749CA6822F4E0620302120403F4E0637D
:103C1800120C134343F0BF6343F40033CB60704787
:103C280000ED00E0164B30B5DC68C4F30224C4F1A3
:103C38000703251D042B28BF0423062D4FF0FF354D
:103C48008CBF033C002405FA03F321EA0303A540D3
:103C580022EA0502A340002843EA0203ACBF00F1B0
:103C68006040084A4FEA0313B8BF00F00F00DBB208
:103C7800AABF00F56140135480F8003330BD00BF7F
:103C880000ED00E014ED00E0002807DB044A4109DC
:103C9800012300F01F00834042F82130704700BF25
:103CA80000E100E02DE9F74FDFF88091604C002338
:103CB8000A6832FA03F502D103B0BDE8F08F012596
:103CC80005FA03F818EA020200F0A4804E680327F8
:103CD80006F003054FEA430E07FA0EFC6F1E012F8C
:103CE8006FEA0C0C34D8876807EA0C0ACF6807FA21
:103CF8000EF747EA0A078760476827EA0808C6F305
:103D080000179F4047EA08074760C76807EA0C089A
:103D18008F6807FA0EF747EA0807022DC76019D11E
:103D28004FEAD30800EB880803F0070AD8F8207098
:103D38004FEA8A0A4FF00F0B0BFA0AFB27EA0B0B24
:103D48000F6907FA0AF747EA0B07C8F8207001E07D
:103D5800032DDAD1076805FA0EF507EA0C073D438B
:103D680016F4403F056055D0D9F8605045F001057C
:103D7800C9F86050D9F8605023F0030707F180476D
:103D880005F0010507F58037019503F0030C019D47
:103D9800BD684FEA8C0C4FF00F0E0EFA0CFEB0F116
:103DA800904F25EA0E0E37D0224DA84236D005F5A1
:103DB8008065A84234D005F58065A84232D005F563
:103DC8008065A84230D005F58065A84214BF062555
:103DD800052505FA0CF545EA0E05BD60A568D7432B
:103DE80016F4801F0CBF3D401543A560E56816F426
:103DF800001F0CBF3D401543E560656816F4003FA1
:103E08000CBF3D40154365602568F60354BF3D402F
:103E18001543256001334BE70025DAE70125D8E78C
:103E28000225D6E70325D4E70425D2E7001002408F
:103E380000040140000400480AB1816170478162B2
:103E480070470000284B1A6818BB02F4C062B2F52C
:103E5800806FD3F8802022F48072C3F8802040D18C
:103E68001A6822F4C06242F400721A601F4A12688B
:103E780032214A431E49B2FBF1F201325969490520
:103E880000D522B95B6958052BD503207047013A44
:103E9800F4E7B0F5007F1FD102F4C062B2F5806F7D
:103EA800D3F8802042F48072C3F8802019D11A68B0
:103EB80022F4C06242F400721A600C4A126832217D
:103EC8004A430B49B2FBF1F2013259694905D9D588
:103ED800002AD7D0013AF8E722F4C06242F480629F
:103EE8001A600020704700BF0070004044050020A1
:103EF80040420F00024A936843F48043936070473E
:103F0800007000402DE9F341044618B9012002B0C1
:103F1800BDE8F0810368D90714D423689A0758D4F8
:103F28002368190700F1A18023685A0700F1C880A7
:103F380023689A0600F12F81E369002B40F05C8129
:103F48000020E4E79F4DAB68EA6803F00C030C2BF4
:103F58000AD102F00303032B08D12B689B03DCD59D
:103F68006368002BD9D1D1E7082BF5E76368B3F56F
:103F7800803F10D12B6843F480332B60FFF73AFE63
:103F880006462B689F03C8D4FFF734FE801B6428BD
:103F9800F7D90320BBE7B3F5A02F04D12B6843F46E
:103FA80080232B60E6E72A6822F480322A602A6898
:103FB80022F480222A60002BE0D1FFF71BFE064680
:103FC8002B689903A9D5FFF715FE801B6428F7D93C
:103FD800DFE77C4DAB68EA6803F00C030C2B17D1C4
:103FE80002F00303022B15D12B685A0502D5E368AA
:103FF800002B8BD06B68226923F0FE4343EA0263EF
:104008006B60714B1868FFF75FFD002888D07DE76B
:10401800042BE8E7E368BBB12B6843F480732B609B
:10402800FFF7E8FD06462B685B0507D56B68226934
:1040380023F0FE4343EA02636B6071E7FFF7DAFDA2
:10404800801B0228EFD9A4E72B6823F480732B6028
:10405800FFF7D0FD06462B685F057FF561AFFFF7D8
:10406800C9FD801B0228F6D993E76369554D9BB1BA
:10407800D5F8943043F00103C5F89430FFF7BAFD42
:104088000646D5F894309B073FF54EAFFFF7B2FDD3
:10409800801B0228F5D97CE7D5F8943023F001037A
:1040A800C5F89430FFF7A6FD0646D5F894309F076B
:1040B8007FF53AAFFFF79EFD801B0228F5D968E728
:1040C800404DAB6DD80027D4AB6D43F08053AB6542
:1040D800AB6D03F080530193019B01273B4E33687E
:1040E800D9051BD5A368012B29D1D5F8903043F009
:1040F8000103C5F89030FFF77DFD41F28838064688
:10410800D5F890309B0740D5002F3FF411AFAB6D29
:1041180023F08053AB650BE70027DFE7336843F4F0
:1041280080733360FFF766FD80463368DA05D9D4BB
:10413800FFF760FDA0EB08000228F6D929E7052B58
:1041480006D1D5F8903043F00403C5F89030CCE799
:10415800D5F8902022F00102C5F89020D5F89020DB
:1041680022F00402C5F89020002BC4D1FFF742FDCD
:1041780041F288380646D5F890309907C4D5FFF73C
:1041880039FD801B4045F6D903E7FFF733FD801B57
:104198004045B5D9FDE6A3690A4DCBB1D5F89830AD
:1041A80043F00103C5F89830FFF724FD0646D5F81B
:1041B80098309B073FF5C0AEFFF71CFD801B022817
:1041C800F5D9E6E6001002404805002000700040DE
:1041D800D5F8983023F00103C5F89830FFF70AFDA9
:1041E8000646D5F898309F077FF5A6AEFFF702FD83
:1041F800801B0228F5D9CCE6454DAA6802F00C02CE
:104208000C2A51D0022B2B6823F080732B603AD1F3
:10421800FFF7F0FC06462B6899012ED4EA683D4B5F
:104228001340226A1343A26A43EA0223E26A43EA7A
:10423800C263626A013A43EA0213226B5208013AE6
:1042480043EA4253626B5208013A43EA4263EB6025
:104258002B6843F080732B60EB6843F08073EB604E
:10426800FFF7C8FC04462B689A013FF569AEFFF7D3
:10427800C1FC001B0228F6D98BE6FFF7BBFC801BAC
:104288000228C8D985E6FFF7B5FC04462B689B01D0
:1042980004D4EA68204B1340EB6051E6FFF7AAFC10
:1042A800001B0228F2D974E6012B3FF42FAEEB680D
:1042B800226A03F0030191427FF428AE616A03F099
:1042C800F0020139B2EB011F7FF420AEA16A03F4BA
:1042D800FE42B2EB012F7FF419AEE16A03F0784297
:1042E800B2EBC16F7FF412AE226B520803F4C00127
:1042F800013AB1EB425F7FF409AE626B5208013AB2
:1043080003F0C063B3EB426F14BF01200020FEE549
:10431800001002400C809F01FCFFEEFE174B9A68CC
:1043280002F00C02042A23D09A6802F00C02082A30
:1043380020D09A6802F00C020C2A1DD1D968DA68DC
:10434800D868DB6801F00301C3F341630329C2F3B2
:104358000312C0F3062003F101030CBF0849094901
:104368005B000132B1FBF2F25043B0FBF3F070474F
:104378000448704702487047002070470010024008
:1043880000127A000024F4002DE9F8430E46054691
:1043980010B90120BDE8F8836D4A136803F00F03D4
:1043A8008B4245D3296811F001084CD12A6891073E
:1043B80040F1A780674B12F0040F1EBF996841F4C3
:1043C800E0619960120741BF9A6822F47C5242F476
:1043D800E0629A609A68A96822F0F0020A439A603B
:1043E8005B4C236803F00F03B34200F293802A6802
:1043F800584C12F0040F40F0A380130706D5A368A9
:104408002A6923F4605343EAC203A360FFF786FFD7
:10441800A368514AC3F30313D35C03F01F03D840C6
:104428004E4B18604E4B1868BDE8F843FFF74CBB7D
:10443800136823F00F030B431360136803F00F0393
:104448008B42A6D1AEE76F68424C032F236849D14F
:104458009B019ED5E368E26803F00303032BE3683E
:104468000CBF40484048C2F30312C3F3062301328D
:10447800B0FBF2F25343E268C2F3416201325200E8
:10448800B3FBF2F3394A93421AD84FF00008A368F5
:1044980023F003033B43A360FFF7ACFB41F28839E9
:1044A8000746A3686A6803F00C03B3EB820F3FF476
:1044B8007DAFFFF79FFBC01B4845F2D9032069E792
:1044C800A36813F0F00F04D08807DED5AB68002B83
:1044D800DBD1A36823F0F00343F08003A3604FF01F
:1044E8008008D4E7022F09D113F4003F3FF451AFFD
:1044F800FFF714FF1D4B9842C7D9EAE713F4806F02
:10450800F4E7B8F1800F01BF124A936823F0F00373
:10451800936065E7236823F00F0333432360FFF7B5
:1045280069FB41F288380746236803F00F03B3425A
:104538003FF45DAFFFF75EFBC01B4045F4D9BDE714
:10454800A368E96823F4E0630B43A36055E700BF61
:104558000020024000100240718800084405002035
:104568004805002000127A000024F40000B4C404B6
:10457800054B064A9B68C3F3C223D35C044A106800
:1045880003F01F03D84070470010024069880008F4
:10459800440500200F2303600B4B9A6802F00302C6
:1045A80042609A6802F0F00282609A6802F4E0625F
:1045B800C2609B68DB0803F4E0630361034B1B687C
:1045C80003F00F030B607047001002400020024008
:1045D8002DE9F3410446006810F4002056D0984DA8
:1045E800AB6DD80044D4AB6D43F08053AB65AB6D75
:1045F80003F080530193019B0126924F3B6843F4DB
:1046080080733B60FFF7F6FA80463B68D90531D5E1
:10461800D5F89030226C13F440731FD093421DD00C
:10462800D5F89020D5F8903043F48033C5F8903011
:10463800D5F8903022F4407123F48033D207C5F8BE
:104648009030C5F8901009D5FFF7D4FA41F28838B0
:104658000746D5F890309B0740F1EB80D5F89030AD
:10466800226C23F440731343C5F89030002008E00F
:104678000026C2E7FFF7BEFAA0EB08000228C4D95B
:1046880003201EB1AB6D23F08053AB652368DE07B2
:1046980008D56B496568D1F8882022F003022A43BF
:1046A800C1F888209D0708D56549A568D1F88820F4
:1046B80022F00C022A43C1F88820590708D560491E
:1046C800E568D1F8882022F030022A43C1F8882012
:1046D8001A0708D55A492569D1F8882022F0C0025E
:1046E8002A43C1F888209F0608D555496569D1F83D
:1046F800882022F440622A43C1F888205E0608D543
:104708004F49A569D1F8882022F440522A43C1F8BC
:1047180088201D0608D54A49E569D1F8882022F481
:1047280040422A43C1F88820D90508D54449256A5A
:10473800D1F8882022F440322A43C1F888209A050B
:1047480008D53F49656AD1F8882022F440222A43D7
:10475800C1F888205F050FD53949A56AD1F88820A6
:1047680022F440122A43C1F88820B5F5801F02BF01
:10477800CA6842F48012CA601E050FD53049E56A3E
:10478800D1F8882022F440022A43C1F88820B5F5E0
:10479800800F02BFCA6842F48012CA60DD040FD5D8
:1047A8002749256BD1F8882022F040722A43C1F8A6
:1047B8008820B5F1807F02BFCA6842F48012CA60BF
:1047C80099040FD51E49656BD1F8882022F0406204
:1047D8002A43C1F88820B5F1006F02BFCA6842F4C5
:1047E8008012CA605A040FD51549A56BD1F88820E4
:1047F80022F040622A43C1F88820B5F1006F02BF59
:10480800CA6842F48012CA601B040FD50C4AE16BD7
:10481800D2F8883023F040530B43B1F1805FC2F8DF
:10482800883003D1D36843F48033D36002B0BDE845
:10483800F081FFF7DFF9C01B40457FF60AAF1FE79D
:104848000010024000700040036A026A22F0010270
:10485800026270B5446882690D6822F4803222F0E1
:1048680073022A438D6823F002032B43124DA8429A
:104878000FD005F50065A8420BD005F54065A842A4
:1048880007D005F58065A84203D005F58065A842E4
:104898000BD1CD6823F008032B4324F44075D1E9EC
:1048A8000546344323F004032C43446082614A687C
:1048B8004263036270BD00BF002C0140036A026AB4
:1048C80022F48072026270B54468C2690D6822F4ED
:1048D800803222F073022A438D6823F4007343EA7E
:1048E8000523144DA8420FD005F50065A8420BD04A
:1048F80005F54065A8420FD124F44055D1E9054695
:10490800344345EA04140EE0CD6823F4006343EA17
:10491800052323F48063EFE7074DA842ECD005F5A3
:104928008065A842E8D04460C2614A68C2630362F5
:1049380070BD00BF002C014000440140036A026AB8
:1049480022F48052026270B54468C2690D6822F090
:10495800807222F4E64242EA05228D6823F400536D
:1049680043EA0533134DA8420FD005F50065A84268
:104978000BD005F54065A8420FD124F44045D1E994
:104988000546344345EA84140EE0CD6823F4004319
:1049980043EA053323F48043EFE7074DA842ECD000
:1049A80005F58065A842E8D04460C2614A6802649F
:1049B800036270BD002C014000440140036A026A92
:1049C80022F48032026230B54468026D0D6822F428
:1049D800803222F070022A438D6823F4003343EAC0
:1049E80005430F4DA8420FD005F50065A8420BD02E
:1049F80005F54065A84207D005F58065A84203D0B3
:104A080005F58065A84204D14D6924F4803444EA50
:104A18000524446002654A688264036230BD00BFB1
:104A2800002C0140036A026A22F48012026230B547
:104A38004468026D0D6822F0807222F4E04242EA76
:104A480005228D6823F4001343EA05530E4DA8424E
:104A58000FD005F50065A8420BD005F54065A842C2
:104A680007D005F58065A84203D005F58065A84202
:104A780004D14D6924F4802444EA85244460026505
:104A88004A68C264036230BD002C014090F83D3092
:104A9800012B2BD1022380F83D300368DA6842F0FD
:104AA8000102DA60124A934212D0B3F1804F0FD05C
:104AB800A2F5943293420BD002F58062934207D05C
:104AC80002F59632934203D002F54062934207D131
:104AD8009968084A0A40062A06D0B2F5803F03D0F2
:104AE8001A6842F001021A600020704701207047DE
:104AF800002C01400700010070477047704770475D
:104B080070477047036870B5DD681E69B2070446D0
:104B18000ED5A9070CD56FF002021A61012202779F
:104B28009B699A0700F0A480FFF7E9FF0023237729
:104B3800730711D568070FD523686FF004021A614F
:104B4800022222779B6913F4407F204600F096806A
:104B5800FFF7D5FF00232377310710D52A070ED595
:104B680023686FF008021A6104222277DB699B0729
:104B7800204600F08980FFF7C2FF00232377F10663
:104B880010D5EA060ED523686FF010021A610822C4
:104B98002277DB6913F4407F20467BD0FFF7AFFF15
:104BA80000232377F30708D5E80706D523686FF0B5
:104BB80001021A612046FFF7A0FF16F4025F08D031
:104BC800290606D523686FF402521A61204600F0C0
:104BD800D4FBF20508D52B0606D523686FF480723E
:104BE8001A61204600F0CAFB700608D5690606D58A
:104BF80023686FF040021A612046FFF782FFB20671
:104C080008D5AB0606D523686FF020021A61204646
:104C180000F0B2FBF00208D5E90206D523686FF46C
:104C280080121A61204600F0AAFBB20208D5AB0236
:104C380006D523686FF400121A61204600F0A0FB25
:104C4800700208D5690206D523686FF480021A61DC
:104C5800204600F096FB320222D52B0220D523688D
:104C68006FF4000220461A61BDE8704000F08ABB6C
:104C7800FFF744FF2046FFF743FF57E7FFF73EFFE4
:104C88002046FFF73DFF65E7FFF738FF2046FFF7AF
:104C980037FF72E7FFF732FF2046FFF731FF7FE764
:104CA80070BD0000274A036890420ED0B0F1804FD3
:104CB8000BD0A2F59432904207D002F58062904260
:104CC80003D002F59632904208D14A6823F0700367
:104CD8001343CA6823F4407313430AE01A4A904204
:104CE800F7D002F580629042F3D002F580629042DC
:104CF800EFD04A6923F08003134303608B68C362D3
:104D08000B6883620F4B98420FD003F500639842FB
:104D18000BD003F54063984207D003F580639842AF
:104D280003D003F58063984201D10B690363012323
:104D380043610369DB0742BF036923F00103036191
:104D4800704700BF002C01400040014010B50446E8
:104D580050B390F83D3003F0FF021BB980F83C20B7
:104D6800FEF778FE0223206884F83D30211DFFF706
:104D780099FF012384F84830002084F83E3084F8F5
:104D88003F3084F8403084F8413084F8423084F869
:104D9800433084F8443084F8453084F8463084F849
:104DA800473084F83D3010BD0120FCE710B50446BB
:104DB80050B390F83D3003F0FF021BB980F83C2057
:104DC800FFF79AFE0223206884F83D30211DFFF783
:104DD80069FF012384F84830002084F83E3084F8C5
:104DE8003F3084F8403084F8413084F8423084F809
:104DF800433084F8443084F8453084F8463084F8E9
:104E0800473084F83D3010BD0120FCE7036A026A90
:104E180022F01002026270B5446882690D6822F0BF
:104E2800807222F4E64242EA05228D6823F02003CC
:104E380043EA0513134DA8420FD005F50065A842B3
:104E48000BD005F54065A8420FD124F44065D1E99F
:104E58000546344345EA84040EE0CD6823F0800318
:104E680043EA051323F04003EFE7074DA842ECD0CF
:104E780005F58065A842E8D0446082614A6882638B
:104E8800036270BD002C01400044014038B590F821
:104E98003C30012B044673D001200C2A84F83C00D6
:104EA8004ED008D8042A2BD0082A39D0BAB100230A
:104EB80084F83C3038BD102A52D0142AF7D1206823
:104EC800FFF7B0FD036D0A6943F400630365036DE2
:104ED80023F480630365036D43EA02234EE02068F0
:104EE800FFF7B2FC83690A6943F0080383618369A9
:104EF80023F0040383618369134383610020D6E7A9
:104F08002068FFF783FF83690A6943F400638361BC
:104F1800836923F480638361836943EA0223ECE7AE
:104F28002068FFF7CBFCC3690A6943F00803C36133
:104F3800C36923F00403C361C3691343C361DDE795
:104F48002068FFF7FBFCC3690A6943F40063C36187
:104F5800C36923F48063C361C36943EA0223EDE7AD
:104F68002068FFF72BFD036D0A6943F0080303650A
:104F7800036D23F004030365036D13430365BDE765
:104F8800022097E710B584680A4324F47F4442EA74
:104F980003222243826010BD38B590F83C30012BC3
:104FA80004464FF0020300F0AA80012280F83D3049
:104FB80080F83C200068534B85682B4083600B6861
:104FC800702B56D03CD8502B67D01DD8402B7DD0A5
:104FD80006D8202B0ED00BD833F010020AD00122AD
:104FE800012384F83D30002384F83C30104638BD56
:104FF800302BF4D1826822F4401222F070021A4356
:1050080042F0070282603DE0602BE9D1036A026A40
:105018004D68C96822F010020262826923F0A00379
:1050280022F4704243EA051342EA013282610362C4
:10503800836823F4401323F0700343F0670320E0F0
:10504800B3F5005F20D004D8B3F5805218BF012211
:10505800C6E72D498B42CDD006D8B3F1101FC9D071
:1050680010398B42BCD1C5E728498B42C2D03031B8
:10507800F7E7CB68D1E90121FFF784FF836843F0A4
:10508800770383600022ABE7CB68D1E90121FFF702
:1050980079FF836843F48043F3E74A68CD68016A7F
:1050A800036A23F001030362836921F00A0123F0F4
:1050B800F00343EA05130A4383610262836823F419
:1050C800401323F0700343F05703DAE74A68CD68CA
:1050D800016A036A23F001030362836921F00A016C
:1050E80023F0F00343EA05130A43836102628368ED
:1050F80023F4401323F0700343F04703C1E71A4633
:1051080074E700BF8800CEFF300010004000100098
:10511800036A01F01F0110B501248C4023EA04033F
:105128000362036A8A401A43026210BD082908B55F
:1051380018D005D859B1042911D090F8433008E0A7
:105148000C2912D01029F8D190F8423001E090F8DB
:105158003E30013B18BF012353B1012045E090F8D0
:105168003F30F6E790F84030F3E790F84130F0E749
:1051780008294FF002033CD006D861B1042935D084
:10518800022380F8433008E00C2935D01029F7D1E4
:1051980080F8423001E080F83E3000680122FFF7D5
:1051A800B7FF214B98420FD003F5006398420BD00C
:1051B80003F54063984207D003F58063984203D013
:1051C80003F5806398421AD1436C43F40043436467
:1051D800154B984203D003F5006398421ED18268AC
:1051E800124B1340062B1BD1002008BD80F83F301E
:1051F800D3E780F84030D0E780F84130CDE7B0F110
:10520800804FECD00A4B9842E9D003F5806398426E
:10521800E5D0036843F001030360E5E7054BF6E7D3
:10522800B3F5803FF5D1DFE7002C0140070001000E
:105238000004004000400140FFF778BF38B5002265
:10524800044600680D46FFF763FF274B98420FD0CE
:1052580003F5006398420BD003F54063984207D0EA
:1052680003F58063984203D003F5806398420DD11B
:10527800026A41F211131A4208D1026A44F2444305
:105288001A4202BF436C23F400434364026A41F2AA
:1052980011131A4208D1026A44F244431A4202BF67
:1052A800036823F001030360082D4FF0010315D0B4
:1052B80006D865B1042D0ED0012384F8433008E0E8
:1052C8000C2D0ED0102DF7D184F8423001E084F86F
:1052D8003E30002038BD84F83F30FAE784F840308B
:1052E800F7E784F84130F4E7002C0140FFF7A6BF48
:1052F80030B590F83C30012B04464FF0020037D00F
:1053080023681C4D84F83D00AB425A68986803D066
:1053180005F50065AB4203D14D6822F470022A43BB
:105328000D6822F0007222F070022A435A60114A76
:10533800934212D0B3F1804F0FD0A2F5943293422A
:105348000BD002F58062934207D002F59632934261
:1053580003D002F54062934204D1896820F08002AC
:105368000A439A600123002084F83D3084F83C0009
:1053780030BD00BF002C0140704770477047704730
:1053880070477047704770477047806E7047806FEE
:10539800704710B51021044601F0A2FB204610BD4D
:1053A80010B58021044601F09BFB204610BD07B5CF
:1053B8004AF6AA23ADF8043000F010FC80680223F6
:1053C800A0F874300A238367036801A9DB6898474B
:1053D80003B05DF804FB10B50A46044601F1280342
:1053E8001430402100F098FDA06710BD10B5836F00
:1053F800B0F874200446083001F0ADFAE06710BD3B
:105408000E4A4FF48273C0E902234FF480614FF4CF
:10541800E06328224FF4802CC0E90413C0E908C2D5
:1054280000230722C0E90633C0E90A33C0E90D2387
:1054380003630823C363184401F027B80030014010
:1054480010B5836FB0F874200446083001F08BF86B
:10545800E06710BD10B501F128020446043114308C
:1054680000F0F6FCA06710BD70B586B0044618229F
:1054780000216846FCF710FB01230222CDE9013226
:10548800164A03930025C4E905252022C4E90A2306
:1054980004F1140605220421C4E90C12C4E90E33F0
:1054A800C4E91033C4E90755C4E91255A58484F842
:1054B80026502565304600F0ABFB6946304600F0C3
:1054C80089FC2A460721304600F0A8FD044B2361D9
:1054D800304600F0A7FC06B070BD00BF0064004075
:1054E8001361000870B50546074B0360044655F87C
:1054F800040FA84201D1204670BD0668382101F08A
:10550800EFFA3046F5E700BF8C88000810B5044B69
:10551800044640F8043BFFF7E5FF204610BD00BFF6
:10552800AC88000810B50446FFF7F0FF204680213C
:1055380001F0D6FA204610BD10B50446FFF7D2FF99
:1055480020467C2101F0CCFA204610BD2DE9F0411F
:105558001D4F8CB00646D6F810C0BCF1000FFAD02B
:10556800D6F8088008F108050FCD6C460FC40FCD9A
:105578000FC495E80F0084E80F000CF1FF33404694
:10558800336101F083FC4046382101F0A9FADDF8C7
:1055980000809DF828503C68BC42DCD0238983EA0F
:1055A8000803C3F30A0333B9A37A33B1012B07D035
:1055B8002369012098472468EEE7E3681D70F7E740
:1055C800E3681D80F4E700BF3C09002008B50B4CD8
:1055D8000B4D2368BFF35B8F13F0010F09D12046F1
:1055E80001F086FA28B100F0F9FA2860204601F0A7
:1055F800AFFA2B68D868FFF7A9FF00BF3009002071
:1056080034090020F0B58DB000F0E8FA0446C0680F
:1056180069460430FFF7DFFEE6683369092B16D8C0
:10562800382001F0CDFA6C46074600F108050FCC8A
:105638000FC50FCC0FC594E80F0085E80F0006F1E1
:105648000801384601F018FC3369013333610DB0A5
:10565800F0BD72B6FEE700002DE9F04792B000F009
:10566800BDFA0646042001F0ABFA774B0360074603
:10567800802001F0A5FA4FF080094A4600218246B1
:10568800FCF70AFA714BCAF80030484601F098FA5C
:105698006F4B03606F4B4360002400F10803C0E9BF
:1056A80002330461C4670546FEF795FA3946304669
:1056B80000F0A8FA7068036814279B6898473A4670
:1056C80021460BA8FCF7E8F9634B6448DA6C42F012
:1056D8002002DA64DA6C02F020020192019ADA6C94
:1056E80042F00102DA64DA6C02F001020292029AD4
:1056F800DA6C42F00202DA64DB6C03F00203224641
:1057080003932821039B4FF02808FEF795FB0123FC
:1057180052480BA9CDE90B83CDE90D44FEF7C2FA37
:105728005146304600F072FA2946304600F06CFACD
:10573800B0684B4D03689B689847F0680430FFF7E2
:1057480093FE1022214607A8FCF7A6F91C22214641
:105758000BA8CDE904440694FCF79EF9414BAC60D4
:10576800C5E9003428464FF49653C5E90334C5F813
:105778001890FFF7EBFA08B172B6FEE74FF48053C2
:1057880007A928460793FFF707FC08B172B6FEE79A
:105798002846FFF70BFB08B172B6FEE704900690A7
:1057A80004A92846FFF7A4FD024608B172B6FEE731
:1057B80060214FF41663CDE90B130D900F900BA9E0
:1057C8002846FFF763FB044608B172B6FEE7284691
:1057D800FEF754F9404601F0F3F9804600F082F8EC
:1057E800102001F0EDF9204BDFF88090C3604FF4F2
:1057F8007A73C0E901730646C0F80090102001F0E2
:10580800DFF91B4BC3600A23C0E901430546C0F812
:105818000090102001F0D4F9164BC360C823C0E9EA
:1058280001730446C0F800903146404600F07AF80B
:105838002946404600F076F82146404600F072F8C6
:10584800404600F087F8FBE7FC880008CC88000891
:10585800AC8800088C88000800100240000400484A
:10586800E408002000040040B7530008BC88000882
:10587800D5550008715A000838B5054655F8044F43
:10588800AC4200D138BDE3681BB1013BE36024683A
:10589800F6E7636998472369F8E77047F8B506465D
:1058A8000A4B56F8045F03600446B54201D120460E
:1058B800F8BDAB6828461B6850F8087B984728460F
:1058C800182101F00DF93D46EFE700BFEC8800080C
:1058D80010B50446FFF7E2FF2046282101F000F941
:1058E800204610BD38B503460B4A43F8042B002563
:1058F8000446C0E90133C560102229461430FCF77C
:10590800CBF8064B6361064BE3610123257484F8E9
:105918002430204638BD00BFEC88000881580008B4
:10592800A358000838B5044618200D4601F048F978
:10593800074A82606A68C260AA680261EA684261CE
:10594800211D01F099FAE3680133E36038BD00BF17
:10595800BC88000838B50546FEF74CF90446FEF742
:1059680049F9A042FBD02A7C05EBC202D2E90530F6
:1059780000F001022BB9002AEED04210AA58D358E1
:1059880001E0002AF9D105EB60009847E4E7000040
:10599800044B1B78012B02D1034A137001E0022B40
:1059A800FAD07047390900203B09002008B50122C8
:1059B80007482021FEF740FA06480021FFF73CFC83
:1059C800054B03221A70054B00221A7008BD00BF50
:1059D80000040048E40800203B0900203A090020A0
:1059E80008B5002207482021FEF726FA06480021BC
:1059F800FFF722FC054B03221A70054B00221A7090
:105A080008BD00BF00040048E40800203B0900204E
:105A18003A09002008B504480121FFF767FC034B49
:105A280000221A7008BD00BFE40800203B090020CE
:105A380008B5094B1B784BB108480021FFF756FC05
:105A4800074B084A1B78012B01D1137008BD022BA4
:105A580018BF0423F9E700BF3A090020E408002032
:105A6800390900203B090020034B1A78034B53F8EF
:105A7800223003B1184770473B0900204C0500202D
:105A8800054B1A78054B197891421FBF04491A70C3
:105A980001200870704700BF39090020380900202C
:105AA8003A09002038B504460068A04200D138BD44
:105AB8000568142101F014F82846F6E770B590B08F
:105AC80055231B4A01931B4B029300241A4B1B4D71
